:0200000080334B
:10003000323232323275A00075800048454C4C4F48
:1000400000574F524C440075A88075880511717493
:1000500085119A90003BE493600511A7A380F77483
:10006000C5119A900041E493600511A7A380F78021
:10007000FE75F02811C57438119A740E119A740126
:10008000119A7406119A22D2A7C280D281C28275B7
:10009000F03211D1D28220A7F4221187F5A0C280BC
:1000A000C281D282C282221187F5A0D280C281D2BF
:1000B0008200C282227B077AFF79FFD9FEDAFADB5F
:1000C000F6D5F0F1227B057A5CDAFEDBFAD5F0F5A5
:0E00D00022D5F0FD227BFF7C02DCFEDBFA2253
:00000001FF
