:0200000080334B
:10003000323232323275A00075800048454C4C4F48
:1000400000574F524C440075A8807588051179748B
:1000500085119811D490003BE493600711A611D448
:10006000A380F574C5119811D4900041E493600702
:1000700011A611D4A380F580FE75F02811C4743840
:100080001198740E1198740111987406119822D267
:10009000A7C280D28111D422118FF5A0C280C28163
:1000A000D28200C28222118FF5A0D280C281D28278
:1000B00000C282227B077AFF79FFD9FEDAFADBF6EB
:1000C000D5F0F1227B057A5CDAFEDBFAD5F0F52279
:0D00D000D5F0FD227BFF7C02DCFEDBFA2276
:00000001FF
