:1000300074FF75A000E50111CBE53811CBE50E1179
:10004000CBE50611CB11E57590FFC29720930474A0
:100050003111D8209204743211D8209104743311D4
:10006000D8209004744111D8D297C296209304747A
:100070003411D8209204743511D8209104743611AB
:10008000D8209004744211D8D296C295209304745B
:100090003711D8209204743811D820910474391182
:1000A000D8209004744311D8D295C294209304743C
:1000B0002A11D8209204743011D82091047423118D
:1000C000D8209083744411D8020047F5A0C280C2A2
:1000D00081D28211E5C28222F5A0D280C281D28271
:0E00E00011E5C282227BFF7C02DCFEDBFA22ED
:00000001FF
